{
    "_format": "hh-sol-artifact-1",
    "contractName": "Todo",
    "sourceName": "contracts/Todo.sol",
    "abi": [
        {
            "inputs": [],
            "stateMutability": "nonpayable",
            "type": "constructor"
        },
        {
            "anonymous": false,
            "inputs": [
                {
                    "indexed": false,
                    "internalType": "uint256",
                    "name": "id",
                    "type": "uint256"
                },
                {
                    "indexed": false,
                    "internalType": "bool",
                    "name": "checked",
                    "type": "bool"
                },
                {
                    "indexed": false,
                    "internalType": "uint256",
                    "name": "dateChecked",
                    "type": "uint256"
                }
            ],
            "name": "checkToggled",
            "type": "event"
        },
        {
            "anonymous": false,
            "inputs": [
                {
                    "indexed": false,
                    "internalType": "uint256",
                    "name": "id",
                    "type": "uint256"
                },
                {
                    "indexed": false,
                    "internalType": "uint256",
                    "name": "date",
                    "type": "uint256"
                },
                {
                    "indexed": false,
                    "internalType": "string",
                    "name": "content",
                    "type": "string"
                },
                {
                    "indexed": false,
                    "internalType": "string",
                    "name": "author",
                    "type": "string"
                },
                {
                    "indexed": false,
                    "internalType": "bool",
                    "name": "checked",
                    "type": "bool"
                }
            ],
            "name": "taskCreated",
            "type": "event"
        },
        {
            "inputs": [
                {
                    "internalType": "string",
                    "name": "_content",
                    "type": "string"
                },
                {
                    "internalType": "string",
                    "name": "_author",
                    "type": "string"
                }
            ],
            "name": "createTask",
            "outputs": [],
            "stateMutability": "nonpayable",
            "type": "function"
        },
        {
            "inputs": [],
            "name": "fetchAllTasks",
            "outputs": [
                {
                    "components": [
                        {
                            "internalType": "uint256",
                            "name": "id",
                            "type": "uint256"
                        },
                        {
                            "internalType": "uint256",
                            "name": "date",
                            "type": "uint256"
                        },
                        {
                            "internalType": "string",
                            "name": "content",
                            "type": "string"
                        },
                        {
                            "internalType": "string",
                            "name": "author",
                            "type": "string"
                        },
                        {
                            "internalType": "bool",
                            "name": "checked",
                            "type": "bool"
                        },
                        {
                            "internalType": "uint256",
                            "name": "dateChecked",
                            "type": "uint256"
                        }
                    ],
                    "internalType": "struct Todo.Task[]",
                    "name": "",
                    "type": "tuple[]"
                }
            ],
            "stateMutability": "view",
            "type": "function"
        },
        {
            "inputs": [
                {
                    "internalType": "uint256",
                    "name": "_id",
                    "type": "uint256"
                }
            ],
            "name": "toggleCheck",
            "outputs": [],
            "stateMutability": "nonpayable",
            "type": "function"
        }
    ],
    "bytecode": "0x60806040523480156200001157600080fd5b506200005d6040518060400160405280601581526020017f4465706c6f796564206e657720636f6e747261637400000000000000000000008152506200006a60201b620004f31760201c565b60008081905550620001fe565b6200010a8160405160240162000081919062000177565b6040516020818303038152906040527f41304fac000000000000000000000000000000000000000000000000000000007bffffffffffffffffffffffffffffffffffffffffffffffffffffffff19166020820180517bffffffffffffffffffffffffffffffffffffffffffffffffffffffff83818316178352505050506200010d60201b60201c565b50565b60008151905060006a636f6e736f6c652e6c6f679050602083016000808483855afa5050505050565b600062000143826200019b565b6200014f8185620001a6565b935062000161818560208601620001b7565b6200016c81620001ed565b840191505092915050565b6000602082019050818103600083015262000193818462000136565b905092915050565b600081519050919050565b600082825260208201905092915050565b60005b83811015620001d7578082015181840152602081019050620001ba565b83811115620001e7576000848401525b50505050565b6000601f19601f8301169050919050565b610cf0806200020e6000396000f3fe608060405234801561001057600080fd5b50600436106100415760003560e01c8063292a458514610046578063990e66e814610062578063b9ebcd5c1461007e575b600080fd5b610060600480360381019061005b919061070d565b61009c565b005b61007c60048036038101906100779190610779565b6101c1565b005b61008661028b565b6040516100939190610969565b60405180910390f35b60004290506040518060c00160405280600054815260200182815260200184815260200183815260200160001515815260200160008152506001600080548152602001908152602001600020600082015181600001556020820151816001015560408201518160020190805190602001906101189291906105b5565b5060608201518160030190805190602001906101359291906105b5565b5060808201518160040160006101000a81548160ff02191690831515021790555060a082015181600501559050507f9c12c49a7584efe75a3e13f9fe095bc1b8bae2631aada420af349b8288588977600054828585600060405161019d9594939291906109e4565b60405180910390a16000808154809291906101b790610bbc565b9190505550505050565b806000600160008381526020019081526020016000206001015414156101e657600080fd5b600042905060006001600085815260200190815260200160002090508060040160009054906101000a900460ff16158160040160006101000a81548160ff0219169083151502179055508181600501819055507f2818990e7cbcc08edad9a6501d405cbf83967946b6828895c328f7eecdbeab67848260040160009054906101000a900460ff168460405161027d939291906109ad565b60405180910390a150505050565b60606000805467ffffffffffffffff8111156102d0577f4e487b7100000000000000000000000000000000000000000000000000000000600052604160045260246000fd5b60405190808252806020026020018201604052801561030957816020015b6102f661063b565b8152602001906001900390816102ee5790505b50905060005b6000548110156104eb57600160008281526020019081526020016000206040518060c0016040529081600082015481526020016001820154815260200160028201805461035b90610b59565b80601f016020809104026020016040519081016040528092919081815260200182805461038790610b59565b80156103d45780601f106103a9576101008083540402835291602001916103d4565b820191906000526020600020905b8154815290600101906020018083116103b757829003601f168201915b505050505081526020016003820180546103ed90610b59565b80601f016020809104026020016040519081016040528092919081815260200182805461041990610b59565b80156104665780601f1061043b57610100808354040283529160200191610466565b820191906000526020600020905b81548152906001019060200180831161044957829003601f168201915b505050505081526020016004820160009054906101000a900460ff161515151581526020016005820154815250508282815181106104cd577f4e487b7100000000000000000000000000000000000000000000000000000000600052603260045260246000fd5b602002602001018190525080806104e390610bbc565b91505061030f565b508091505090565b61058981604051602401610507919061098b565b6040516020818303038152906040527f41304fac000000000000000000000000000000000000000000000000000000007bffffffffffffffffffffffffffffffffffffffffffffffffffffffff19166020820180517bffffffffffffffffffffffffffffffffffffffffffffffffffffffff838183161783525050505061058c565b50565b60008151905060006a636f6e736f6c652e6c6f679050602083016000808483855afa5050505050565b8280546105c190610b59565b90600052602060002090601f0160209004810192826105e3576000855561062a565b82601f106105fc57805160ff191683800117855561062a565b8280016001018555821561062a579182015b8281111561062957825182559160200191906001019061060e565b5b5090506106379190610673565b5090565b6040518060c0016040528060008152602001600081526020016060815260200160608152602001600015158152602001600081525090565b5b8082111561068c576000816000905550600101610674565b5090565b60006106a361069e84610a6a565b610a45565b9050828152602081018484840111156106bb57600080fd5b6106c6848285610b17565b509392505050565b600082601f8301126106df57600080fd5b81356106ef848260208601610690565b91505092915050565b60008135905061070781610ca3565b92915050565b6000806040838503121561072057600080fd5b600083013567ffffffffffffffff81111561073a57600080fd5b610746858286016106ce565b925050602083013567ffffffffffffffff81111561076357600080fd5b61076f858286016106ce565b9150509250929050565b60006020828403121561078b57600080fd5b6000610799848285016106f8565b91505092915050565b60006107ae83836108bb565b905092915050565b60006107c182610aab565b6107cb8185610ace565b9350836020820285016107dd85610a9b565b8060005b8581101561081957848403895281516107fa85826107a2565b945061080583610ac1565b925060208a019950506001810190506107e1565b50829750879550505050505092915050565b61083481610b01565b82525050565b61084381610b01565b82525050565b600061085482610ab6565b61085e8185610adf565b935061086e818560208601610b26565b61087781610c92565b840191505092915050565b600061088d82610ab6565b6108978185610af0565b93506108a7818560208601610b26565b6108b081610c92565b840191505092915050565b600060c0830160008301516108d3600086018261094b565b5060208301516108e6602086018261094b565b50604083015184820360408601526108fe8282610849565b915050606083015184820360608601526109188282610849565b915050608083015161092d608086018261082b565b5060a083015161094060a086018261094b565b508091505092915050565b61095481610b0d565b82525050565b61096381610b0d565b82525050565b6000602082019050818103600083015261098381846107b6565b905092915050565b600060208201905081810360008301526109a58184610882565b905092915050565b60006060820190506109c2600083018661095a565b6109cf602083018561083a565b6109dc604083018461095a565b949350505050565b600060a0820190506109f9600083018861095a565b610a06602083018761095a565b8181036040830152610a188186610882565b90508181036060830152610a2c8185610882565b9050610a3b608083018461083a565b9695505050505050565b6000610a4f610a60565b9050610a5b8282610b8b565b919050565b6000604051905090565b600067ffffffffffffffff821115610a8557610a84610c63565b5b610a8e82610c92565b9050602081019050919050565b6000819050602082019050919050565b600081519050919050565b600081519050919050565b6000602082019050919050565b600082825260208201905092915050565b600082825260208201905092915050565b600082825260208201905092915050565b60008115159050919050565b6000819050919050565b82818337600083830152505050565b60005b83811015610b44578082015181840152602081019050610b29565b83811115610b53576000848401525b50505050565b60006002820490506001821680610b7157607f821691505b60208210811415610b8557610b84610c34565b5b50919050565b610b9482610c92565b810181811067ffffffffffffffff82111715610bb357610bb2610c63565b5b80604052505050565b6000610bc782610b0d565b91507fffffffffffffffffffffffffffffffffffffffffffffffffffffffffffffffff821415610bfa57610bf9610c05565b5b600182019050919050565b7f4e487b7100000000000000000000000000000000000000000000000000000000600052601160045260246000fd5b7f4e487b7100000000000000000000000000000000000000000000000000000000600052602260045260246000fd5b7f4e487b7100000000000000000000000000000000000000000000000000000000600052604160045260246000fd5b6000601f19601f8301169050919050565b610cac81610b0d565b8114610cb757600080fd5b5056fea2646970667358221220bd43fdcd8bb7450606032e6b99172aae707672bf4245e7a4b357ebe59900a0c964736f6c63430008040033",
    "linkReferences": {},
    "deployedLinkReferences": {}
}